:1050000031400039B240805A20013F4000000F93E8
:1050100005242F839F4FC6500011FB233F40000003
:105020000F9304241F83CF430011FC2330407C5096
:105030003040345000130B120A1232C2B240805A70
:105040002001C2430000C24301003A40E8033D4052
:10505000803E3C4028003B401027F2E02000310019
:105060000F4A3F50C0FF0E4D03431E83FD230F9C8C
:10507000F8230F4B03431F83FD23EF3F31400039DB
:1050800032C2B012BC50F2D010003200F2D0100088
:105090003100F2D020003200F2D020003100F2D0F6
:1050A00040003200F2D040003100B2D01000600168
:1050B00032D2B01236500F433040C450B240805A02
:0650C00020013041FF3F1A
:10FFE0003050305030503050305030503050305011
:10FFF0003050305030503050305030503050004041
:0400000300005000A9
:00000001FF
