:100000000C94D2000C94185F0C94495F0C947A5FA6
:100010000C94AB5F0C94DC5F0C940D600C943E6010
:100020000C946F600C94FC000C94FC000C94FC008D
:100030000C94FB080C94FC000C94FC000C94B90785
:100040000C94FC000C94FC000C94FC000C94FC0040
:100050000C94FC000C94FC000C94FC000C94940791
:100060000C94FC000C94335D0C94FC000C94FC008C
:100070000C94FC000C94FC000C94FC000C94FC0010
:100080000C94FC000C94FC000C94FC000C94FC0000
:100090000C94745D0C94FC000C94FC000C94605B5C
:1000A0000C94FC000C94FC000C94FC000C94FC00E0
:1000B0000C94FC000C94FC000C94FC000C94FC00D0
:1000C0000C94FC000C94FC000C94FC0000212427F0
:1000D0002A2D3033002225282B2E313400202326D0
:1000E000292C2F3205050505030303030101010433
:1000F00004030606060606060606010405010501B8
:1001000003020202020202010202050504040304C2
:1001100004010304070707010208101020408004AF
:1001200008102040020204081020408001028020B4
:100130004004200101020408102001408040800199
:1001400002080408800410040201000008090000ED
:10015000000000000000000000000000000000009F
:10016000000000000000000000000000000000008F
:10017000000000000000000000000000007C3C3E89
:100180005E2B3D3F2F5B5D3B2C2A225C00009B09D0
:1001900053565456EF59F059565BA060B5656A6DD9
:1001A000A86DAD6D11241FBECFEFD1E2DEBFCDBF74
:1001B0001AE0A0E0B2E0E0EFFFED00E00BBF02C00C
:1001C00007900D92A631B107D9F715E1A6E1BAE083
:1001D00001C01D92A935B107E1F711E0C4EAD1E0F1
:1001E00004C02297FE010E94336ECE38D107C9F7B2
:1001F0000E948D070C94F66F0C940000EF92FF9212
:100200000F931F937C016091790A70917A0A809113
:100210007B0A90917C0A2DE036E649E150E00E948D
:10022000AE6D615A7C408149934C6093790A70931A
:100230007A0A80937B0A90937C0ABC0188279927CD
:1002400000E010E0A80197010E94F46D0E94F607FB
:100250001F910F91FF90EF9008952F923F924F9230
:100260005F926F927F928F929F92AF92BF92CF9246
:10027000DF92EF92FF920F931F93DF93CF9300D003
:1002800000D0CDB7DEB75C01D62EC72E2A013C8345
:100290002B83F02E88E090E061E070E00E94376EE2
:1002A0008C01009711F48FEF9AC0EE2009F077C00F
:1002B00081E0F81609F044C08D2D9C2D9C01790138
:1002C000480168011E010894211C311C38E0632E8E
:1002D000712C600E711ED7018C91898311968C91BF
:1002E0008A8389E49DE0B1010E948C5AF6018193D2
:1002F0006F0182E090E0E80EF91EE615F70559F768
:10030000F50198012C5F3F4FD4018D914D018483FD
:100310003196A217B307C1F7F8018481D5018C93F8
:10032000858111968C931197868112968C931297E2
:10033000878113968C93139781E019968C932FC025
:10034000FF2069F58D2D9C2D9C0179014801CC245D
:10035000DD243E010894611C711CF70180818983B2
:1003600081818A8389E49DE0B3010E948C5AD40183
:100370008D934D01EEEFFFEFCE0EDF1E82E090E099
:10038000E80EF91E9CEFC9169FEFD90631F7D80188
:100390008C91F501828711968C9183871186F501E6
:1003A00020E030E00CC0D2018C9184872F5F3F4F5A
:1003B00031962436310541F00894411C511C8B8143
:1003C0009C812817390778F3A0E7B0E0AA0EBB1E7E
:1003D000F50131832083C8010E94006F81E00F90F6
:1003E0000F900F900F90CF91DF911F910F91FF9081
:1003F000EF90DF90CF90BF90AF909F908F907F90C5
:100400006F905F904F903F902F9008952091730AC6
:100410003091740A40E62E3D340759F040E62B3FF8
:10042000340761F024503046B1F440E68E3D940725
:10043000C1F020E08F5A9046A9F413C040E68E3DEB
:10044000940779F020E68F3A920759F020E0845023
:10045000904641F406C08EE79AE060E072E00E94A8
:10046000220A21E0822F0895009731F12091730A2A
:100470003091740A40E62E3D340751F040E62B3FA0
:10048000340721F02450304689F40BC020E015C019
:1004900020E68B3F920781F020E08450904669F47B
:1004A0000BC020E08B5F904641F406C08EE79AE0D7
:1004B00060E072E00E94220A21E0822F0895CF922C
:1004C000DF92EF920F93CF93DF936C0181E090E086
:1004D00064EB70E00E94376EEC0181E08887C658BB
:1004E000DF4F1882229688ED88831A92CB57D0402E
:1004F0001092F50B82E89AE0BE0147E152E021E05C
:100500000E94C340E091E10AF0E0EE0FFF1FEC52C1
:10051000F54F0190F081E02DC957DF4FE957FF4FAC
:1005200080818883249638968081888323973797A3
:100530008081888324963896808188832397379793
:100540008081888324963896808188832397379783
:10055000808188832496389680818883CE58D040C5
:10056000CE0168E172E0A60124E030E001E0EE2473
:100570000E942D0182E89AE0BE010E94583A8091C3
:100580005E0C882339F08EE79AE069E272E00E94FF
:10059000220A22C08EE79AE064E372E00E941C0AFD
:1005A000F6014081518160E070E08EE79AE02AE038
:1005B00030E00E94F3098EE79AE062E572E00E9463
:1005C0001C0AF6014281538160E070E08EE79AE0F8
:1005D0002AE030E00E94110ACE010E94006F81E003
:1005E000DF91CF910F91EF90DF90CF9008958F9290
:1005F0009F92AF92BF92CF92DF92EF92FF920F93B2
:100600001F93CF93DF938C014B016091720AE6E157
:10061000FAE020E030E069C0A901808191812F5F7C
:100620003F4F34968017910709F05FC0EA01CC0F65
:10063000DD1FCC0FDD1FC85ED54F888199818819D9
:100640009909780100E010E05401CC24DD240597DD
:10065000E8F48EE79AE06AE572E00E941C0A8EE7F1
:100660009AE0B801A70120E130E00E94F3098EE78B
:100670009AE06BE672E00E941C0A8EE79AE0B601EF
:10068000A5012AE030E00E94110A34C08EE79AE00A
:1006900064E772E00E941C0A8EE79AE0B801A701A5
:1006A00020E130E00E94F3098EE79AE06BE672E009
:1006B0000E941C0A8EE79AE0B601A5012AE030E00C
:1006C0000E94110A8EE79AE066E872E00E941C0A16
:1006D0004881598160E070E08EE79AE02AE030E0DE
:1006E0000E94110A9982888237C0261708F494CF95
:1006F000643110F080E031C0E62FF0E0EE0FFF1F14
:10070000EE0FFF1FDF01AA5EB54F0D931C93E85E4D
:10071000F54F918280826F5F6093720A8EE79AE054
:1007200063E972E00E941C0AA80160E070E08EE7B5
:100730009AE020E130E00E94F3098EE79AE06BE650
:1007400072E00E941C0AA40160E070E08EE79AE06B
:100750002AE030E00E94110A81E0DF91CF911F91E1
:100760000F91FF90EF90DF90CF90BF90AF909F9050
:100770008F900895CF92DF92EF920F93DF93CF93F4
:1007800000D000D0CDB7DEB781E090E09C838B83B2
:1007900080910F0A9091100A9A8389830196909311
:1007A000100A80930F0A81E090E064EB70E00E94F1
:1007B000376E6C0181E0F60180878AE790E0C80E11
:1007C000D91EF601108282E090E0C80ED91E88ED95
:1007D000F601808312926F0185E89FEFC80ED91E43
:1007E0001092F50B82E89AE0B60147E152E021E071
:1007F0000E94C340C60168E172E0AE014F5F5F4FE7
:1008000024E030E001E0EE240E942D0182E89AE02D
:10081000B6010E94583A80915E0C882339F08EE729
:100820009AE069E272E00E94220A10C08EE79AE024
:1008300062EA72E00E941C0A49815A8160E070E01D
:100840008EE79AE02AE030E00E94110AC6010E9479
:10085000006F0E94DE07605F784D8F4F9F4F60935F
:10086000750A7093760A8093770A9093780A81E0EC
:100870000F900F900F900F90CF91DF910F91EF900D
:10088000DF90CF900895CF92DF92EF920F93DF9396
:10089000CF93CDB7DEB72C970FB6F894DEBF0FBE5F
:1008A000CDBFDE011196E6E6FAE08CE001900D92F4
:1008B0008150E1F78D819E8101969E838D8384E630
:1008C00090E00E94FE0081E090E064EB70E00E9406
:1008D000376E6C0181E0F60180878AE790E0C80EF0
:1008E000D91EF601108282E090E0C80ED91E8AEA75
:1008F000F601808312926F0185E89FEFC80ED91E22
:100900001092F50B82E89AE0B60147E152E021E04F
:100910000E94C340C60168E172E0AE014F5F5F4FC5
:100920002CE030E001E0EE240E942D0182E89AE004
:10093000B6010E94583A80915E0C882339F08EE708
:100940009AE069E272E00E94220A1CC08EE79AE0F7
:100950006BEB72E00E941C0A8EE79AE06CE070E09C
:100960000E94AB098EE79AE062EC72E00E941C0ADA
:100970004F81588560E070E08EE79AE02AE030E031
:100980000E94110AC6010E94006F81E02C960FB6EA
:10099000F894DEBF0FBECDBFCF91DF910F91EF90E6
:1009A000DF90CF900895AF92BF92CF92DF92EF92F7
:1009B0000F931F93DF93CF93CDB7DEB76A970FB630
:1009C000F894DEBF0FBECDBF5C01DE011196FC01C5
:1009D0003C968AE101900D928150E1F78EE79AE012
:1009E00066EE72E00E941C0AADE7CA2ED12CCA0C3A
:1009F000DB1C00E010E0F60141916F0150E060E087
:100A000070E08EE79AE020E130E00E94F3090F5F8A
:100A10001F4F0430110579F7F1E8CF2ED12CCA0C05
:100A2000DB1C00E010E0F60141916F0150E060E056
:100A300070E08EE79AE020E130E00E94F3090F5F5A
:100A40001F4F0430110579F78EE79AE067E172E0F5
:100A50000E94220A6F8178858D819E810E94F70213
:100A6000882339F48EE79AE06BEF72E00E94220A45
:100A700067C084E690E00E94FE0081E090E064EBB5
:100A800070E00E94376E6C0181E0F60180878AE792
:100A900090E0C80ED91EF601108282E090E0C80EE8
:100AA000D91E8BEBF601808312926F0185E89FEFD0
:100AB000C80ED91E1092F50B82E89AE0B60147E104
:100AC00052E021E00E94C340A501445F5F4FE0E790
:100AD000F0E0AE0EBF1EF50120813181C6016AE152
:100AE00073E001E0EE240E942D018EE79AE06BE2B4
:100AF00073E00E941C0A8FE090E0A80EB91EF50179
:100B0000519140E0808190E0482B592B60E070E0EB
:100B10008EE79AE020E130E00E94110A82E89AE034
:100B2000B6010E94583A80915E0C882331F48EE71A
:100B30009AE069E573E00E94220AC6010E94006FF4
:100B40006A960FB6F894DEBF0FBECDBFCF91DF918E
:100B50001F910F91EF90DF90CF90BF90AF900895CD
:100B6000EF92FF920F931F93CF93DF93EC018B01D2
:100B7000CB010E943402780100E010E0882341F0AC
:100B8000CE010E94D3048EE79AE06CE573E004C0C6
:100B90008EE79AE062E773E00E941C0A8EE79AE013
:100BA000B801A70120E130E00E94110ADF91CF9146
:100BB0001F910F91FF90EF900895EF92FF920F9386
:100BC0001F93DF93CF93CDB7DEB72C970FB6F89472
:100BD000DEBF0FBECDBF7C018B01CB010E940602A0
:100BE000882309F44EC0DE011196F7013C968CE093
:100BF00001900D928150E1F78EE79AE06CE873E086
:100C00000E941C0A49855A856B857C858EE79AE08F
:100C10000E94C10980916C0A90916D0A2F813885DC
:100C2000821B930B059708F58EE79AE06AEA73E05A
:100C30000E941C0A40916C0A50916D0A60E070E0BD
:100C40008EE79AE02AE030E00E94F3098EE79AE00E
:100C50006DEC73E00E941C0A4F81588560E070E0E3
:100C60008EE79AE02AE030E019C0A6E6BAE0FE017D
:100C700031968CE001900D928150E1F70E9443047F
:100C80000FC08EE79AE066ED73E00E941C0AA8018F
:100C900060E070E08EE79AE020E130E00E94110A07
:100CA0002C960FB6F894DEBF0FBECDBFCF91DF916B
:100CB0001F910F91FF90EF900895AF92BF92CF9246
:100CC000DF92EF92FF920F931F93DF93CF9300D0A9
:100CD00000D0CDB7DEB78EE79AE00E943A0A8823AB
:100CE00009F47AC082E89AE00E94325580915D0C46
:100CF000882309F468C070C0F0E0EE0FFF1FEC52CB
:100D0000F54F0190F081E02DE158FF4FF190EE2476
:100D10008081282F30E02E293F29399691914081FA
:100D20003E978081EC57F0408B3B59F1883D19F09C
:100D30008A3A81F52BC0D92ECC24042F10E00C293F
:100D40001D2984859585A685B785BC0189839A83ED
:100D5000AB83BC83C9010E94F702882309F44EC00B
:100D60008091730A9091740A0817190709F446C014
:100D70008B819C8101969C838B83C5010E945F02BD
:100D800009C0CF01B9010E94B00504C0CF01B9016B
:100D90000E94DD05E091E10AF0E0EE0FFF1FEC524A
:100DA000F54F808191810E94006F8091E10AE82FC8
:100DB000F0E0EE0FFF1FEC52F54F118210828150D0
:100DC0008093E10A04C05E010894A11CB11CE0916B
:100DD000E10AEE2309F090CFE090750AF090760AD0
:100DE0000091770A1091780A0E94DE076E157F0540
:100DF0008007910798F00E94BA0310C08EE79AE02E
:100E000063EF73E00E941C0AA80160E070E08EE7C7
:100E10009AE020E130E00E94110ABCCF0F900F90C1
:100E20000F900F90CF91DF911F910F91FF90EF9056
:100E3000DF90CF90BF90AF900895EF92FF920F9305
:100E40001F93DF93CF9300D0CDB7DEB702E81AE04F
:100E5000C80161E041E021E00E945D56C8010E94A6
:100E60009E53C8016FE00E94B03C86E6898383E30D
:100E70008A831092720A8CE0E6E6FAE0DF011D92A6
:100E80008A95E9F7C801BE016F5F7F4F0E94E82E87
:100E9000C8010E94413C3091850A20E08091860A79
:100EA00090E0822B932B9093740A8093730AA0E0B6
:100EB000B0E08093790A90937A0AA0937B0AB0936A
:100EC0007C0A0EE71AE087E1E82E82E0F82EC801DE
:100ED000B7010E94220AC8016AE074E00E941C0A5D
:100EE000C80167E174E00E941C0A4091730A5091A6
:100EF000740A60E070E0C80120E130E00E94110A4D
:100F0000C801B7010E94220A0F900F90CF91DF9184
:100F10001F910F91FF90EF9008950E943E080E944C
:100F20001D070E945D06FDCF1F920F920FB60F9214
:100F300011248F939F93AF93BF938091CD12909183
:100F4000CE12A091CF12B091D0120196A11DB11D69
:100F50008093CD129093CE12A093CF12B093D01263
:100F6000BF91AF919F918F910F900FBE0F901F90E7
:100F700018951F920F920FB60F9211248F939F9383
:100F8000AF93BF938091D1129091D212A091D312BE
:100F9000B091D4120196A11DB11D8093D1129093EE
:100FA000D212A093D312B093D412BF91AF919F915C
:100FB0008F910F900FBE0F901F9018956091CD12DA
:100FC0007091CE128091CF129091D01227E0660FCF
:100FD000771F881F991F2A95D1F72EE330E040E054
:100FE00050E00E94F46DCA01B9010895AF92BF921A
:100FF000CF92DF92EF92FF920F931F935B016C01F0
:101000006091CD127091CE128091CF129091D0123A
:1010100047E0660F771F881F991F4A95D1F72EE387
:1010200030E040E050E00E94F46D79018A01609167
:10103000CD127091CE128091CF129091D01237E0E4
:10104000660F771F881F991F3A95D1F72EE330E07E
:1010500040E050E00E94F46D2E193F09400B510B07
:101060002A153B054C055D0510F31F910F91FF906C
:10107000EF90DF90CF90BF90AF900895789484B7B1
:10108000877F84BF1092CD121092CE121092CF1291
:101090001092D01284B5826084BD84B5816084BD15
:1010A00085B5826085BD85B5816085BDEEE6F0E0E1
:1010B000808181608083E1E8F0E0808182608083CC
:1010C000808181608083E0E8F0E0808181608083BE
:1010D000E1EBF0E0808184608083E1E9F0E08081F1
:1010E00084608083E0EBF0E0808181608083E0E9D0
:1010F000F0E0808181608083E4E6F0E080818E7F93
:101100008083ECE7F0E080818F778083808180644A
:101110008083EAE7F0E08081846080838081826060
:1011200080838081806880831092C1001092C90002
:10113000089590917D0A982B90937D0A80FF32C08C
:10114000809164008E7F8093640080917C008F7713
:1011500080937C0080917C00806480937C008091EF
:101160007A00846080937A0080917A008260809314
:101170007A0080917A00806880937A008091640080
:101180008F7780936400809164008B7F80936400EC
:10119000809164008D7F80936400809165008E7FD4
:1011A000809365000895282F209590917D0A9223C1
:1011B00090937D0A80FF1EC080917A008F77809384
:1011C0007A00809164008160809364008091640063
:1011D00080688093640080916400846080936400E0
:1011E00080916400826080936400809165008160DA
:1011F0008093650008951F920F920FB60F920BB661
:101200000F9211242F933F934F935F936F937F938C
:101210008F939F93AF93BF93EF93FF93F89481E0E5
:101220008093110AE0E6F0E080818068808380810D
:101230008F7B808383E060E00E9450097894FF9167
:10124000EF91BF91AF919F918F917F916F915F913E
:101250004F913F912F910F900BBE0F900FBE0F90AB
:101260001F901895282F30E0C901895E9E4FFC0120
:1012700094912C513F4FF9018491882381F0E82FFC
:10128000F0E0E453FF4FE491F0E0662329F480811D
:1012900090958923808308958081892B8083089588
:1012A000482F50E0CA01865B9E4FFC012491CA0181
:1012B000895E9E4FFC0194914C515F4FFA0134912D
:1012C0003323C1F1222331F1233021F480918000B6
:1012D0008F7705C0243031F4809180008F7D80931A
:1012E000800018C0213019F484B58F7704C02230F3
:1012F00021F484B58F7D84BD0DC0263021F480910A
:10130000B0008F7705C0273029F48091B0008F7D21
:101310008093B000E32FF0E0EC52FF4FE491F0E057
:10132000662329F4808190958923808308958081A4
:10133000892B8083089510927E0A08950F93FC01F3
:10134000CB01BA012AE030E040E050E000810E9489
:10135000DC5D0F910895AB0160E070E00E949E0992
:1013600008950F931F938C018DE0F80160810E9416
:10137000B55D8AE0F80160810E94B55D1F910F9113
:1013800008950F931F938C010E949E09C8010E942B
:10139000B1091F910F910895EF92FF920F931F9340
:1013A000CF93DF93EC017A018B0177FF0CC08DE2C4
:1013B00068810E94B55D10950095F094E094E11C61
:1013C000F11C011D111DC801B7012AE030E040E009
:1013D00050E008810E94DC5DDF91CF911F910F9159
:1013E000FF90EF9008950F931F93FC01DA018B019A
:1013F0002115310529F4842F60810E94B55D0EC04E
:101400002A30310519F40E94CC0908C030E040E0D0
:1014100050E0BD01C80100810E94DC5D1F910F9169
:1014200008950F931F938C010E94F309C8010E9435
:10143000B1091F910F910895FC01CB0160810E94B9
:10144000C65D08950F931F938C01CB01F801608155
:101450000E94C65DC8010E94B1091F910F910895B5
:10146000FC0180810E941F5D0895FC0180810E9423
:10147000E45C0895FC0180810E94C05C0895FC0139
:1014800080810E947E5E0895FC0160E076E980E044
:1014900090E040810E949C5E86E161E00E943209FA
:1014A0000895CF93DF93EC016983613019F06330C5
:1014B00079F407C00E94440A86E161E00E94500965
:1014C00007C086E160E00E94500988810E947E5E2C
:1014D000DF91CF9108950F931F93CF93DF93DC019A
:1014E0008B01EC01C658DD4F1982188240E0BE0125
:1014F00006C04F5F2F5F3F4FFB0131832083FB010D
:1015000020813181F801E20FF31F8081882389F760
:10151000469583E090E09983888390E0ED01C6587A
:10152000DD4F50E00BC0FD01E20FF31FE857FD4F08
:101530008081980F2F5F3F4F39832883288139811D
:101540002417350780F3892F8095A40FB51FA9575D
:10155000BD4F8C93DF91CF911F910F910895AF9262
:10156000BF92CF92DF92EF92FF920F931F93CF9390
:10157000DF937C018B0106551F4FD8018C910A5ACD
:101580001040F801E855FF4F813009F024C1C22E08
:10159000DD24DA01AC0DBD1D83E28C9380818130A6
:1015A00009F446C0813020F0823009F038C2AAC068
:1015B00011961C92119701571F4FF80181918F01CD
:1015C00012968C93129780810059104013968C9339
:1015D0001397F701E658FD4F11821082EF01FCE7E7
:1015E000CF2EF2E0DF2ECE0CDF1CB70162587D4F0C
:1015F000AD010FC0FA01E20FF31FA00FB11FA20F40
:10160000B31F1C968C91848388819981019699835C
:10161000888328813981F601A081B181FB01808115
:10162000918101968A1B9B0B2817390718F3F7C184
:1016300011968C93B70166587D4FDB011D921C9269
:10164000EB0110C0FA01EA0FFB1FEC0DFD1DA00F0E
:10165000B11FA557BF4F8C918283888199810196D4
:1016600099838883A881B981A430B10558F3FB011F
:1016700011821082E701C658DD4F10C0FA01EA0F4F
:10168000FB1FEC0DFD1DA00FB11FA957BF4F8C9183
:10169000868388819981019699838883A881B981FD
:1016A000A430B10558F319821882E701C658DD4FFE
:1016B000ECE7AE2EE2E0BE2EAE0CBF1C9701225826
:1016C0003D4F11C0FA01E60FF71FEC0DFD1DA00FF5
:1016D000B11FA60FB71F1C968C91828788819981B4
:1016E00001969983888368817981F501A081B18110
:1016F000F9018081918101968A1B9B0B68177907FC
:1017000008F38DC111968C93C0E0D0E0D701A658A4
:10171000BD4F06C0E9016F5F7F4F11967C936E93BA
:101720006D917C911197F801E60FF71FEF56FF4F6F
:1017300080819E012F5F3F4F833261F71D921C9283
:10174000E701C658DD4F10C0FA01EA0FFB1FEC0D90
:10175000FD1DA00FB11FAF56BF4F8C9182838881B2
:101760009981019699838883A881B981A217B307CB
:1017700058F319821882E701C658DD4F7CE7A72E7F
:1017800072E0B72EAE0CBF1C8EE792E0E80EF91E99
:1017900013C0FA01E60FF71FE20FF31FEC0DFD1D5A
:1017A000A00FB11FA60FB71F1C968C918283888152
:1017B000998101969983888368817981F501A08157
:1017C000B181F7018081918101968A1B9B0B68177B
:1017D0007907F8F224C18081813009F446C0813054
:1017E00020F0823009F01BC1AEC030E0FA01E20FF8
:1017F000F31F108201571F4FD8018D918D018183F6
:101800008C91005910408283F701E658FD4F1182F8
:101810001082EF016CE7C62E62E0D62ECE0CDF1CE4
:10182000EEE7F2E0EE0EFF1E11C0FA01E60FF71F21
:10183000E20FF31FA00FB11FA60FB71F1C968C91CC
:1018400083838881998101969983888368817981CE
:10185000F601A081B181F7018081918101968A1BF7
:101860009B0B6817790708F3DAC030E0FA01E20F42
:10187000F31F8083B70166587D4FDB011D921C92D8
:10188000EB0110C0FA01EA0FFB1FE20FF31FA00FDC
:10189000B11FA557BF4F8C91818388819981019693
:1018A00099838883A881B981A430B10558F3FB01DD
:1018B00011821082E701C658DD4F10C0FA01EA0F0D
:1018C000FB1FE20FF31FA00FB11FA957BF4F8C9151
:1018D000858388819981019699838883A881B981BC
:1018E000A430B10558F319821882E701C658DD4FBC
:1018F0009CE7C92E92E0D92ECE0CDF1C8EE792E039
:10190000E80EF91E11C0FA01E60FF71FE20FF31FF0
:10191000A00FB11FA60FB71F1C968C9181878881DD
:10192000998101969983888368817981F601A081E4
:10193000B181F7018081918101968A1B9B0B681709
:10194000790708F36CC0C22EDD24FA01EC0DFD1DF1
:101950008083C0E0D0E0D701A658BD4F06C0E901A2
:101960006F5F7F4F11967C936E936D917C91119771
:10197000F801E60FF71FEF56FF4F80819E012F5FA2
:101980003F4F833261F71D921C92E701C658DD4F2D
:1019900010C0FA01EA0FFB1FEC0DFD1DA00FB11FD7
:1019A000AF56BF4F8C91818388819981019699832D
:1019B0008883A881B981A217B30758F319821882C6
:1019C000E701C658DD4F8CE7A82E82E0B82EAE0C9A
:1019D000BF1C8EE792E0E80EF91E13C0FA01E60F75
:1019E000F71FE20FF31FEC0DFD1DA00FB11FA60F97
:1019F000B71F1C968C918183888199810196998368
:101A0000888368817981F501A081B181F7018081A6
:101A1000918101968A1B9B0B68177907F8F2DF9179
:101A2000CF911F910F91FF90EF90DF90CF90BF90DB
:101A3000AF9008953F924F925F926F927F928F92F4
:101A40009F92AF92BF92CF92DF92EF92FF920F934D
:101A50001F93DF93CF9300D000D0CDB7DEB76B01DB
:101A60004A017901AA24A39410E022E730E0C20ED3
:101A7000D31E21E3422E9DE7792E83E3382EBEE567
:101A80006B2EADE55A2E30C1D401A60FB71F8C9135
:101A9000813111F090E04AC04C92F70180818F5F54
:101AA00080838C917C926F5F7F4F9401260F371F4C
:101AB0003C832B8361507040FB013296FA83E983AB
:101AC00020C0EB81FC81B180418349815A814F5F05
:101AD0005F4F3296FC83EB8329813A812E5F3F4F23
:101AE0003A832983F70180819801280F311DC901AC
:101AF000F60120813181820F931F48175907A8F4FE
:101B00008B2DEB81FC8140818083F70180819801DE
:101B1000280F311DC901F60120813181820F931FE9
:101B200029813A812817390760F291E08C9183313D
:101B300009F04DC0992309F04AC03C92F701808119
:101B40008F5F80838C917C926F5F7F4F9401260F13
:101B5000371F3C832B8361507040FB013296FA8320
:101B6000E98320C0EB81FC81B180418349815A81A6
:101B70004F5F5F4F3296FC83EB8329813A812E5F62
:101B80003F4F3A832983F70180819801280F311D47
:101B9000C901F60120813181820F931F481759072F
:101BA000A8F48B2DEB81FC8140818083F70180813B
:101BB0009801280F311DC901F60120813181820F62
:101BC000931F29813A812817390760F291E08C919F
:101BD0008E3709F04DC0992309F04AC06C92F70185
:101BE00080818F5F80838C917C926F5F7F4F9401A7
:101BF000260F371F3C832B8361507040FB013296C8
:101C0000FA83E98320C0EB81FC81B1804183498163
:101C10005A814F5F5F4F3296FC83EB8329813A8173
:101C20002E5F3F4F3A832983F70180819801280F67
:101C3000311DC901F60120813181820F931F4817A0
:101C40005907A8F48B2DEB81FC8140818083F7013B
:101C500080819801280F311DC901F6012081318151
:101C6000820F931F29813A812817390760F291E08A
:101C70002C912D37C1F59923B1F55C92F701808144
:101C80008F5F80838C912C936F5F7F4FF401E60F01
:101C9000F71F6F5F7F4F17C0B1804183AB014F5F6C
:101CA0005F4F32966E5F7F4FD7018C919801280F5E
:101CB000311DC901D6012D913C91820F931F481708
:101CC000590788F48B2D40818083D7018C9198012E
:101CD000280F311DC901D6012D913C91820F931F10
:101CE00068177907C8F2A3946A2D70E0F701808124
:101CF0009801280F311DC901D6012D913C91820F09
:101D0000931F6817790708F4BFCE0F900F900F90BC
:101D10000F90CF91DF911F910F91FF90EF90DF9087
:101D2000CF90BF90AF909F908F907F906F905F907B
:101D30004F903F900895DF92EF92FF920F931F9381
:101D4000CF93DF93890180E090E0F3E1DF2EEEE7AF
:101D5000EE2E31E1F32E37C02F5F3F4F9C919D3720
:101D600031F01196319624173507B0F32DC02417A2
:101D7000350750F5E9012196E60FF71F818183337E
:101D800061F0843318F4813369F405C08D3549F06E
:101D90008E3541F404C0FC9205C0DC9203C0EC9285
:101DA00001C09C9341505040F901E00FF11FE60F34
:101DB000F71F02C0818180832F5F3F4F3196CE0194
:101DC00024173507B8F39C012417350738F4F901B7
:101DD000E00FF11FDB01AE0FBF1FC0CFDF91CF912E
:101DE0001F910F91FF90EF90DF900895EF92FF9277
:101DF0000F931F93CF93DF938C01EB017A01FC01CA
:101E0000E658FD4F2D5F3F4F3183208323503040F4
:101E1000A0E0B0E0AF010BC0FE01E60FF71F80812C
:101E2000A80FB11D6F5F7F4FFA0171836083FA01C4
:101E3000608171816E157F0578F3AF3FB10521F0A8
:101E4000AF3F11F081E008C008521E4FC20FD31FF0
:101E50008C81F801808380E0DF91CF911F910F91F9
:101E6000FF90EF900895EF92FF920F931F93CF93FF
:101E7000DF93EC01CA5BDD4FE8808DEEE80E24971E
:101E80008881C254D240813009F0C9C0CD5DDE4F97
:101E9000F880C352D140FA948E0106581D4FD801E4
:101EA0001D921C92B8012F2D30E087E290E0289F10
:101EB000A001299F500D389F500D11244C0F5D1F1C
:101EC00011C0FA01EA0FFB1FE05AFF4FAC0FBD1F14
:101ED000A85BBD4F8C918083FB018081918101962D
:101EE00091838083FB01A081B181A230B10548F3C9
:101EF000D8011D921C92AE0146585D4F2F2D30E047
:101F000087E290E0289FB001299F700D389F700DE7
:101F100011246C0F7D1F11C0FB01EA0FFB1FEE594E
:101F2000FF4FAC0FBD1FA65BBD4F8C918083FA01A4
:101F300080819181019691838083FA01A081B18192
:101F4000A430B10548F311821082BE0166587D4F5E
:101F50002F2D30E087E290E0289FA001299F500DAF
:101F6000389F500D11244C0F5D1F12C0FA01EA0F6B
:101F7000FB1FEA59FF4FAC0FBD1FA25BBD4F8C91F9
:101F80008083DB018D919C91119701968D939C9399
:101F9000FB01A081B181A430B10540F387E290E05C
:101FA000289FF001299FF00D389FF00D1124EC0FB0
:101FB000FD1FEA57FF4FCE5ADD4F8881C255D240F0
:101FC0008083E658F040AE014A5B5D4FDA018D91A7
:101FD0009C910D9720F1DB011D921C929E012658C9
:101FE0003D4FBA01AF0111C0FA01EA0FFB1FE659DC
:101FF000FF4FAC0FBD1FAD5ABD4F8C918083F901CF
:1020000080819181019691838083F901A081B181C2
:10201000FB01808191810C97A817B90728F3CE5B4B
:10202000DD4F8881C254D2408250843008F047C1CD
:10203000CD5DDE4FF880C352D140FA948E01065830
:102040001D4FD8011D921C92B8012F2D30E087E260
:1020500090E0289FA001299F500D389F500D11241A
:102060004C0F5D1F11C0FA01EA0FFB1FE05AFF4F32
:10207000AC0FBD1FA85BBD4F8C918083FB0180819D
:102080009181019691838083FB01A081B181A2306F
:10209000B10548F3D8011D921C92AE0146585D4F20
:1020A0002F2D30E087E290E0289FB001299F700D2E
:1020B000389F700D11246C0F7D1F11C0FB01EA0FBA
:1020C000FB1FEE59FF4FAC0FBD1FA65BBD4F8C91A0
:1020D0008083FA0180819181019691838083FA0146
:1020E000A081B181A430B10548F311821082AE0104
:1020F00046585D4F2F2D30E087E290E0289FB001D9
:10210000299F700D389F700D11246C0F7D1F12C018
:10211000FB01EA0FFB1FEA59FF4FAC0FBD1FA25B8B
:10212000BD4F8C918083DA018D919C91119701961E
:102130008D939C93FA01A081B181A430B10540F345
:1021400011821082AE0146585D4F0E2D10E02F2DEA
:1021500030E087E290E0289FB001299F700D389F02
:10216000700D11246C0F7D1F12C0FB01EA0FFB1FC5
:10217000E659FF4FAC0FBD1FAE5ABD4F8C91808307
:10218000DA018D919C91119701968D939C93FA01A0
:10219000A081B181A017B10740F311821082BE0166
:1021A00066587D4F2F2D30E087E290E0289FA001F8
:1021B000299F500D389F500D11244C0F5D1F14C0E6
:1021C000FA01EA0FFB1FE258FF4FAC0FBD1FA00F33
:1021D000B11FAD5ABD4F8C918083DB018D919C91D5
:1021E000119701968D939C93FB01A081B181A23040
:1021F000B10530F387E290E0289FD001299FB00D10
:10220000389FB00D1124AC0FBD1FA058BF4FFE0169
:10221000EE0DF11DEB5AFD4F81918D9380818C93D2
:10222000A158B040FB0111821082AE0146585D4FAB
:10223000BD0114C0FB01EA0FFB1FEE57FF4FAC0FAF
:10224000BD1FA00FB11FA95ABD4F8C918083DA0129
:102250008D919C91119701968D939C93FA01A08189
:10226000B181A230B10530F311821082BE016658EF
:102270007D4F87E290E0289FA001299F500D389F55
:10228000500D11244C0F5D1F14C0FA01EA0FFB1F03
:10229000EC57FF4FAC0FBD1FA00FB11FA75ABD4F8A
:1022A0008C918083DB018D919C91119701968D9388
:1022B0009C93FB01A081B181A230B10530F3DF9185
:1022C000CF911F910F91FF90EF900895CF92DF92E1
:1022D000EF92FF920F931F93CF93DF93EC016B016B
:1022E0007A01B901FC01E658FD4F0D5F1F4F1183C4
:1022F000008303501040A0E0B0E09F010BC0F60146
:10230000E40FF51F8081A80FB11D4F5F5F4FF901EA
:1023100051834083F901408151814617570778F373
:10232000AF3FB10519F0AF3F09F05AC0F601E00F19
:10233000F11F9581D70115968C911597981709F083
:102340004FC0968116968C91981709F049C09B0151
:10235000201B310B2930310529F48781882309F4AA
:1023600042C03EC087818823D9F5FE01E658FD4F63
:1023700011821082BF012950304012C0FE01E40FCB
:10238000F51FE85BFD4FD601A40FB51FA00FB11FCD
:1023900018968C9180834F5F5F4FFB015183408380
:1023A000DB014D915C914217530740F3CA5BDD4F4F
:1023B00039832883C654D240F70185818E3491F445
:1023C0008681843479F42230310530F0FE01ED5DF0
:1023D000FE4F80818F5F8083CE010E94330F02C049
:1023E00081E001C080E0DF91CF911F910F91FF90BC
:1023F000EF90DF90CF900895FC01E658FD4F1182D9
:102400001082DF010BC0FC01E20FF31FE857FD4F04
:1024100010822F5F3F4F11963C932E932D913C914C
:1024200011972E31310578F30895CF92DF92EF9214
:10243000FF920F931F93CF93DF936C01FC01E6583B
:10244000FD4F118210828F01E62EFF24E701CC0F91
:10245000DD1FCC0FDD1FCE0DDF1D1CC0EC0FFD1FDF
:102460003B96EE0FFF1FEC0DFD1D808191810E94B8
:10247000006FD8018D919C911197FE01E80FF91F13
:102480003B96EE0FFF1FEC0DFD1D11821082019691
:102490008D939C93D801ED91FC91E530F105F0F21C
:1024A0008701000F111F0C0D1D1D075B1F4FD80169
:1024B000ED91FC9115AA16AA17AA10AECF010E94A1
:1024C000006FF80111821082F601ED5AFF4F8081F2
:1024D00081508083DF91CF911F910F91FF90EF90FA
:1024E000DF90CF900895AF92BF92CF92DF92FF928C
:1024F0000F931F93CF93DF936C01FF2460E070E094
:102500008C0106581D4FD8016D937C93EB01AA9660
:10251000CC0FDD1FCC0DDD1D23C05F010894A11C75
:10252000B11CA881B981A555BF4FBB96EE0FFF1F07
:10253000EC0DFD1D0190F081E02DE555FF4F2D9133
:102540003D914D915C9180819181A281B3818217EF
:102550009307A407B50754F4F394F801B182A0825D
:10256000D801ED91FC91E430F105B8F2B4E0FB162E
:1025700021F4F62E65E070E002C0F62EF3946F5F52
:102580007F4F6530710508F4BECF0F2D10E0065D5A
:102590001F4F000F111F0C0D1D1DF801808191812F
:1025A0000E94006FD8011D921C928F2DDF91CF9158
:1025B0001F910F91FF90DF90CF90BF90AF90089543
:1025C000AF92BF92CF92DF92FF920F931F93CF9360
:1025D000DF936C01FF2460E070E08C0106581D4F12
:1025E000D8016D937C93EB01AA96CC0FDD1FCC0D27
:1025F000DD1D23C05F010894A11CB11CA881B98115
:10260000A555BF4FBB96EE0FFF1FEC0DFD1D0190B2
:10261000F081E02DE555FF4F2D913D914D915C915D
:1026200080819181A281B381281739074A075B070E
:1026300054F4F394F801B182A082D801ED91FC9199
:10264000E430F105B8F2B4E0FB1621F4F62E65E0B3
:1026500070E002C0F62EF3946F5F7F4F6530710516
:1026600008F4BECF0F2D10E0065D1F4F000F111FA5
:102670000C0D1D1DF801808191810E94006FD80111
:102680001D921C928F2DDF91CF911F910F91FF9082
:10269000DF90CF90BF90AF9008950F931F93CF938B
:1026A000DF938C01FC01E658FD4F11821082EF018F
:1026B00016C0BA96EE0FFF1FE00FF11F80819181C7
:1026C0000E94006F888199818A96FC01EE0FFF1F9E
:1026D000E00FF11F11821082899799838883E88126
:1026E000F981E530F10528F3DF91CF911F910F912A
:1026F0000895AF92BF92CF92DF92EF92FF920F9325
:102700001F93CF93DF93EC0109E4A02EB12CA80E08
:10271000B91EEE24FF241AE7C12E12E0D12EC80EF6
:10272000D91ED6011D921C928701000F111F000FA8
:10273000111F0E0D1F1D1CC0E00FF11F3B96EE0F69
:10274000FF1FEC0FFD1F808191810E94006FF60139
:1027500080819181F801E80FF91F3B96EE0FFF1F72
:10276000EC0FFD1F118210820196D6018D939C9370
:10277000D601ED91FC91E530F105F0F2D501ED9136
:10278000FC9115AA16AA17AA10AECF010E94006FDD
:10279000F501119211925F010894E11CF11CF5E022
:1027A000EF16F10409F0BDCFCD5ADF4F1882C65A9B
:1027B000DD4F188222961882DF91CF911F910F91E1
:1027C000FF90EF90DF90CF90BF90AF900895AF92C1
:1027D000BF92CF92DF92EF92FF920F931F93CF930E
:1027E000DF93EC01FC01E355FD4F108260E070E0E7
:1027F0001AE7A12E12E0B12EA80EB91E7F01D50155
:102800006D937C938B01000F111F0C0F1D1F075B35
:102810001F4F28C0D8018D919C916F010894C11C55
:10282000D11CF601EE0FFF1FEC0FFD1FE75BFF4F02
:102830000190F081E02DDC01D5962D913D914D91D7
:102840005C91D89785A996A9A7A9B0AD2817390793
:102850004A075B076CF4F70180818F5F8083D501A5
:10286000CD92DC92D501ED91FC91E430F10590F22E
:10287000F7018081843021F4608365E070E004C05A
:10288000862F8F5FD7018C936F5F7F4F6530710507
:1028900008F4B5CFFE01E658FD4F118210828F017A
:1028A0007DEAE72E72E0F72EEC0EFD1E2FC0F70139
:1028B000808190E0FC01EE0FFF1FEE0FFF1FE80F7D
:1028C000F91FE20FF31F3B96EE0FFF1FEC0FFD1FEA
:1028D000808191810E94006FD7018C9190E0FC0172
:1028E000EE0FFF1FEE0FFF1FE80FF91FD8018D91AC
:1028F0009C911197E80FF91F3B96EE0FFF1FEC0F0D
:10290000FD1F1182108201968D939C93F801208106
:1029100031812530310558F2D701EC91F0E0EE0F0E
:10292000FF1FEC0FFD1FE75BFF4F0190F081E02DD3
:1029300015AA16AA17AA10AEEC91F0E0EE0FFF1F31
:10294000EC0FFD1FE75BFF4F808191810E94006FBC
:10295000D701EC91F0E0EE0FFF1FEC0FFD1FE75BDE
:10296000FF4F11821082FE01ED5AFF4F808181508E
:102970008083C155DD4F1882DF91CF911F910F9158
:10298000FF90EF90DF90CF90BF90AF9008952F927F
:102990003F924F925F926F927F928F929F92AF92EF
:1029A000BF92CF92DF92EF92FF920F931F93DF932C
:1029B000CF93CDB7DEB760970FB6F894DEBF0FBEEA
:1029C000CDBF7C016B01FC01E658FD4F11821082E6
:1029D0002FEA32E0E20EF31ED7018C9121E53DEFA4
:1029E000E20EF31E882311F1DF0110C0F901EE0F92
:1029F000FF1FEE0DFF1DE75BFF4F80819181892B4B
:102A000059F02F5F3F4F11963C932E932D913C919F
:102A100011972530310550F34DEA52E0E40EF51ED2
:102A2000D7012C93E3E5FDEFEE0EFF1E2AE732E01F
:102A3000E20EF31ED7011D921C92E8ECFFEFEE0EA2
:102A4000FF1ED7018C91EEEBFDEFEE0EFF1E8130E5
:102A500079F026E432E0E20EF31ED7018D919C91CD
:102A6000EAEBFDEFEE0EFF1E0C9770F50C94C126FD
:102A700020E832E0E20EF31ED7018C91E0E8FDEF92
:102A8000EE0EFF1E882379F426E432E0E20EF31EF8
:102A9000D7018D919C91EAEBFDEFEE0EFF1E05979D
:102AA00098F40C94C126813079F426E432E0E20EE9
:102AB000F31ED7018D919C91EAEBFDEFEE0EFF1E08
:102AC0000B9710F40C94C12666248824772499244B
:102AD00000E010E0B70166587D4FE2E44E2EE2E0E0
:102AE0005E2E4E0C5F1C51E8252E52E0352E2E0C2A
:102AF0003F1C970120583D4F3E872D87DB011D92DB
:102B00001C92F801EE0FFF1FEE0DFF1DE75BFF4F5C
:102B10000190F081E02D85A996A9A7A9B0AD18165E
:102B200019061A061B060CF08CC3D2018C91813059
:102B300009F0D0C1AD85BE858C91882309F0E1C034
:102B4000D60114969C9114978081981709F079C347
:102B5000AA24BB2416968C91833219F431E0A32E5B
:102B6000B12C96012A0D3B1DD90116968C91DB01E3
:102B70001D921C928130A9F0813020F0823009F042
:102B800088C070C09389D90117968C9117979817B0
:102B900009F07FC0948918968C91981709F079C034
:102BA0007CC0FB0111821082A801440F551F4E0DFD
:102BB0005F1D475B5F4F17C0FA01A081B181A20F73
:102BC000B31FF601E20FF31FEA0DFB1D1B969C914C
:102BD0008781981719F0882483940BC02F5F3F4F8B
:102BE000DB012D933C93FB012081318124303105A1
:102BF00018F3DB011D921C92A801440F551F4E0DC6
:102C00005F1D475B5F4F14C0FA01A081B181A20F25
:102C1000B31FF601E20FF31FEA0DFB1D1F969C91F7
:102C200083859817A1F52F5F3F4FDB012D933C93D0
:102C3000FB01208131812430310530F325C09927F3
:102C400087FD9095F601E40FF51FEA0DFB1D278126
:102C500030E082179307D9F44F5F5F4FFB01518338
:102C6000408307C0D801AA0FBB1FAE0DBF1DA75BD5
:102C7000BF4FFB0140815181ED91FC911197E40F11
:102C8000F51F85898332D9F6882039F002C088245F
:102C90008394F1E06F1609F0D4C2702E21E0A216E1
:102CA000B10479F4E02FF0E0EE0FFF1FEE0DFF1DF1
:102CB000E75BFF4F0190F081E02DD60115968C91D6
:102CC00082AFE72DF0E0EE0FFF1FEE0DFF1DE75B7B
:102CD000FF4FA081B181DB968C91DB978F5FDB96F4
:102CE0008C930190F081E02DD60112962C911297D1
:102CF00083A994A9820F911D94AB83AB15969C90E8
:102D0000E3C0813009F09DC2D6011A969C911A97B2
:102D10008081981709F095C2AA24BB241C968C9137
:102D2000833219F4B1E0AB2EB12C96012A0D3B1D74
:102D3000D9011C968C91DB011D921C928130A9F067
:102D4000813020F0823009F088C070C09389D901A9
:102D50001D968C911D97981709F07FC094891E9637
:102D60008C91981709F079C07CC0FB011182108208
:102D7000A801440F551F4E0D5F1D475B5F4F17C0E5
:102D8000FA01A081B181A20FB31FF601E20FF31F78
:102D9000EA0DFB1D1B969C918585981719F08824D8
:102DA00083940BC02F5F3F4FDB012D933C93FB01BE
:102DB000208131812430310518F3DB011D921C92F2
:102DC000A801440F551F4E0D5F1D475B5F4F14C098
:102DD000FA01A081B181A20FB31FF601E20FF31F28
:102DE000EA0DFB1D1F969C9181899817A1F52F5F15
:102DF0003F4FDB012D933C93FB0120813181243037
:102E0000310530F325C0992787FD9095F601E40F31
:102E1000F51FEA0DFB1D258530E082179307D9F4D5
:102E20004F5F5F4FFB015183408307C0D801AA0F5A
:102E3000BB1FAE0DBF1DA75BBF4FFB014081518182
:102E4000ED91FC911197E40FF51F85898332D9F636
:102E5000882039F002C088248394F1E06F1609F0CD
:102E6000F0C1702E21E0A216B10479F4E02FF0E059
:102E7000EE0FFF1FEE0DFF1DE75BFF4F0190F0818E
:102E8000E02DD6011B968C9182AFE72DF0E0EE0F7E
:102E9000FF1FEE0DFF1DE75BFF4FA081B181DB96A9
:102EA0008C91DB978F5FDB968C930190F081E02D06
:102EB000D60118962C91189783A994A9820F911D79
:102EC00094AB83AB1B969C909A94B4E0B91508F030
:102ED000B4C1F8C68250843008F0B3C1D1018C91DE
:102EE000882309F0D2C0D6011B969C911B97808144
:102EF000981709F0A6C1AA24BB241D968C91833291
:102F000019F431E0A32EB12C96012A0D3B1DD901F5
:102F10001D968C91DB011D921C928130A9F08130AD
:102F200020F0823009F088C070C09389D9011E96C4
:102F30008C911E97981709F07FC094891F968C91E9
:102F4000981709F079C07CC0FB0111821082A8019A
:102F5000440F551F4E0D5F1D475B5F4F17C0FA01B1
:102F6000A081B181A20FB31FF601E20FF31FEA0D9A
:102F7000FB1D1B969C918685981719F088248394D5
:102F80000BC02F5F3F4FDB012D933C93FB01208152
:102F900031812430310518F3DB011D921C92A80108
:102FA000440F551F4E0D5F1D475B5F4F14C0FA0164
:102FB000A081B181A20FB31FF601E20FF31FEA0D4A
:102FC000FB1D1F969C9182899817A1F52F5F3F4F9B
:102FD000DB012D933C93FB012081318124303105AD
:102FE00030F325C0992787FD9095F601E40FF51F72
:102FF000EA0DFB1D268530E082179307D9F44F5F59
:103000005F4FFB015183408307C0D801AA0FBB1F4C
:10301000AE0DBF1DA75BBF4FFB0140815181ED91FC
:10302000FC911197E40FF51F85898332D9F688202A
:1030300039F002C088248394F1E06F1609F001C1D1
:10304000702E21E0A216B10479F4E02FF0E0EE0F2B
:10305000FF1FEE0DFF1DE75BFF4F0190F081E02D9C
:10306000D6011C968C9182AFE72DF0E0EE0FFF1F8A
:10307000EE0DFF1DE75BFF4F0190F081E02D83AD6A
:103080008F5F83AFF6019484D3C0823009F0D9C03A
:10309000D60151969C9151978081981709F0D1C023
:1030A000AA24BB2453968C91833219F4B1E0AB2E41
:1030B000B12C96012A0D3B1DD90153968C91DB0151
:1030C0001D921C928130A9F0813020F0823009F0ED
:1030D00088C070C09389D90154968C9154979817E1
:1030E00009F07FC0948955968C91981709F079C0A2
:1030F0007BC0FB0111821082A801440F551F4E0DA9
:103100005F1D475B5F4F17C0FA01A081B181A20F1D
:10311000B31FF601E20FF31FEA0DFB1D1B969C91F6
:103120008489981719F0882483940BC02F5F3F4F30
:10313000DB012D933C93FB0120813181243031054B
:1031400018F3DB011D921C92A801440F551F4E0D70
:103150005F1D475B5F4F14C0FA01A081B181A20FD0
:10316000B31FF601E20FF31FEA0DFB1D1F969C91A2
:10317000808D9817A1F52F5F3F4FDB012D933C9376
:10318000FB01208131812430310530F325C099279E
:1031900087FD9095F601E40FF51FEA0DFB1D2489CC
:1031A00030E082179307D9F44F5F5F4FFB015183E3
:1031B000408307C0D801AA0FBB1FAE0DBF1DA75B80
:1031C000BF4FFB0140815181ED91FC911197E40FBC
:1031D000F51F85898332D9F6882031F002C0882412
:1031E0008394F1E06F1669F5702E21E0A216B10408
:1031F00079F4E02FF0E0EE0FFF1FEE0DFF1DE75B0F
:10320000FF4F0190F081E02DD60152968C9182AF54
:10321000E72DF0E0EE0FFF1FEE0DFF1DE75BFF4F08
:103220000190F081E02D83AD8F5F83AFF60192882E
:103230009A94F4E0F91508F445C56624639405E012
:1032400010E00F5F1F4F0530110508F457CC2AE737
:1032500032E0E20EF31ED7011D921C92E6E8FDEF6C
:10326000EE0EFF1E662009F015C6870103551D4F9F
:10327000D8017C90EFEAF2E0EE0EFF1E81E0D7016C
:103280008C93E4EAFDEFEE0EFF1ED7018C91EDEA80
:10329000FFEFEE0EFF1E853028F0C7010E94E713F6
:1032A000D8017C90F701ED5AFF4F80818F5F8083BA
:1032B000A72CBB2481E090E06EE370E00E94376EA3
:1032C000FC012501440C551C4E0C5F1C29E430E028
:1032D000420E531ED2018D939C93009709F4F8C5BA
:1032E00022E432E0E20EF31ED7018C912EEB3DEF8B
:1032F000E20EF31E813009F084C240E852E0E40E91
:10330000F51ED7018C9120E83DEFE20EF31E8823D5
:1033100009F022C112A6D201ED91FC91D6011496BA
:103320008C918083F201008111810E94DE07D80117
:10333000D5966D937D938D939C93D897F701E6581E
:10334000FD4F118210829F01A20111C0FA0160811C
:1033500071816A0F7B1FAC0DBD1D8C91DB0119962D
:103360008C93F90180819181019691838083F90189
:10337000A081B181A230B10548F340E050E0D60110
:1033800016968C91833211F441E050E0D501AA0FDA
:10339000BB1FAE0DBF1DA75BBF4F2D913C91119779
:1033A000B601640F751FFB018681F90181A79701A2
:1033B00026583D4FF901118210820D911C911197F1
:1033C000F80181A5813089F0813020F0823009F048
:1033D00089C063C0FB018781F801838BED91FC916B
:1033E000DB0118968C91848B7DC0F90111821082CB
:1033F0004901BD0114C0FB01008111810A0F1B1F8F
:10340000AC0DBD1DA40FB51F17968C91D8011B964E
:103410008C93F40180819181019691838083F401E2
:10342000A081B181A430B10530F3D9011D921C9265
:10343000970126583D4FB501660F771F6E0D7F1D12
:10344000675B7F4F14C0FB01008111810A0F1B1FB6
:10345000AC0DBD1DA40FB51F1B968C91D8011F96F6
:103460008C93F90180819181019691838083F90188
:10347000A081B181A430B10530F334C0ED91FC914D
:103480001197E80FF91F258BFB018081918101962F
:1034900091838083459710F00CC0B901FB018081B6
:1034A0009181F601E80FF91FE40FF51F2781233200
:1034B00029F7F501EE0FFF1FEE0DFF1DE75BFF4F34
:1034C0000190F081E02D2AE732E0E20EF31ED701F1
:1034D0008D919C9126E83DEFE20EF31EE80FF91F57
:1034E00083E2858B4130510571F4F501EE0FFF1F2A
:1034F000EE0DFF1DE75BFF4F0190F081E02DD6013F
:1035000015968C9182AFD501AA0FBB1FAE0DBF1DC2
:10351000A75BBF4FED91FC91119791E093AFF6013E
:1035200095809A94F4E0F91508F4CCC32D913C9160
:103530001197F6018281F90183AB14AAF601838108
:10354000F90182ABED91FC9182A98150823010F497
:1035500093A7A0C413A69EC4813009F09BC482A780
:10356000D201ED91FC91D6011A968C918083F201E3
:10357000008111810E94DE07D801D5966D937D935D
:103580008D939C93D897A70146585D4FFA011182FD
:1035900010829A01B20111C0FB01008111810A0F52
:1035A0001B1FAC0DBD1D8C91D80115968C93F90194
:1035B00080819181019691838083F901A081B181FD
:1035C000A430B10548F3DA011D921C9297012658E8
:1035D0003D4FA501440F551F4E0D5F1D475B5F4FCB
:1035E00012C0FA01608171816A0F7B1FAC0DBD1D95
:1035F00014968C91DB0111968C93F9018081918155
:10360000019691838083F901A081B181A430B10535
:1036100040F360E070E0D6011C968C91833211F487
:1036200061E070E0D501AA0FBB1FAE0DBF1DA75B07
:10363000BF4F2D913C911197A601460F571FFA01DC
:103640008485F90181A7970126583D4FF901118220
:1036500010820D911C911197F80181A5813089F09C
:10366000813020F0823009F089C063C0FA0185857D
:10367000F801838BED91FC91DA011E968C91848B7D
:103680007DC0F901118210824901AD0114C0FA0117
:10369000008111810A0F1B1FAC0DBD1DA60FB71FA6
:1036A0001D968C91D8011B968C93F4018081918199
:1036B000019691838083F401A081B181A430B1058A
:1036C00030F3D9011D921C92970126583D4FA50158
:1036D000440F551F4E0D5F1D475B5F4F14C0FA012D
:1036E000008111810A0F1B1FAC0DBD1DA60FB71F56
:1036F00051968C91D8011F968C93F901808191810C
:10370000019691838083F901A081B181A430B10534
:1037100030F334C0ED91FC911197E80FF91F258B20
:10372000FA0180819181019691838083459710F001
:103730000CC0A901FA0180819181F601E80FF91FFF
:10374000E60FF71F2585233229F7F501EE0FFF1F3E
:10375000EE0DFF1DE75BFF4F0190F081E02D2AE7A2
:1037600032E0E20EF31ED7018D919C9126E83DEFE9
:10377000E20EF31EE80FF91F83E2858BD501AA0F35
:10378000BB1FAE0DBF1DA75BBF4F2D913C91119785
:10379000F6018085F90183AB14AAF6018185F90150
:1037A00082ABED91FC9182A98150823018F481E0C6
:1037B00083A701C013A66130710571F4F501EE0F06
:1037C000FF1FEE0DFF1DE75BFF4F0190F081E02D25
:1037D000D6011B968C9182AFAA0CBB1CAE0CBF1CF1
:1037E000E9E4F0E0AE0EBF1ED501ED91FC9181E061
:1037F00083AFF60193849A94F4E0F91508F04AC374
:1038000061C28250843008F045C321E832E0E20E04
:10381000F31ED7018C912FE73DEFE20EF31E8823B4
:1038200009F066C1D6011B968C918083F20100815C
:1038300011810E94DE07D801D5966D937D938D93FB
:103840009C93D89740E050E0F6018585833211F4CF
:1038500041E050E0D501AA0FBB1FAE0DBF1DA75B15
:10386000BF4F2D913C911197B601640F751FFB015D
:103870008585F90181A7970126583D4FF9011182ED
:1038800010820D911C911197F80181A5813089F06A
:10389000813020F0823009F089C063C0FB01868549
:1038A000F801838BED91FC91DB011F968C91848B49
:1038B0007DC0F901118210824901BD0114C0FB01D4
:1038C000008111810A0F1B1FAC0DBD1DA40FB51F78
:1038D0001E968C91D8011B968C93F4018081918166
:1038E000019691838083F401A081B181A430B10558
:1038F00030F3D9011D921C92970126583D4FB50116
:10390000660F771F6E0D7F1D675B7F4F14C0FB0135
:10391000008111810A0F1B1FAC0DBD1DA40FB51F27
:1039200052968C91D8011F968C93F90180819181D8
:10393000019691838083F901A081B181A430B10502
:1039400030F334C0ED91FC911197E80FF91F258BEE
:10395000FB0180819181019691838083459710F0CE
:103960000CC0B901FB0180819181F601E80FF91FBC
:10397000E40FF51F2685233229F7F501EE0FFF1F0F
:10398000EE0DFF1DE75BFF4F0190F081E02D2AE770
:1039900032E0E20EF31ED7018D919C9126E83DEFB7
:1039A000E20EF31EE80FF91F83E2858B41305105CB
:1039B00071F4F501EE0FFF1FEE0DFF1DE75BFF4FEA
:1039C0000190F081E02DD6011C968C9182AFD5013B
:1039D000AA0FBB1FAE0DBF1DA75BBF4FED91FC91A2
:1039E000119781E083AFF60194849A94F4E0F9157D
:1039F00008F468C1970126583D4FF90111821082E1
:103A00008901AD0111C0FA01608171816A0F7B1FCC
:103A1000AC0DBD1D8C91DB0115968C93F801808156
:103A20009181019691838083F801A081B181A430B6
:103A3000B10548F3D9011D921C92970126583D4FBC
:103A4000A501440F551F4E0D5F1D475B5F4F12C010
:103A5000FA01608171816A0F7B1FAC0DBD1D149648
:103A60008C91DB0111968C93F901808191810196F3
:103A700091838083F901A081B181A430B10540F325
:103A800011821082970126583D4FA501440F551F02
:103A9000D701A40FB51FA75BBF4F11C06D917C91DB
:103AA0001197680F791F8C0D9D1DFC018085FB010E
:103AB0008187F90180819181019691838083F90149
:103AC000808191818230910548F3D701A40FB51F01
:103AD000A75BBF4FED91FC91119713A62D913C91DF
:103AE0001197F6018285F90182ABED91FC91CDC170
:103AF000823009F0CFC1D60151968C918083F201BA
:103B0000008111810E94DE07D801D5966D937D93C7
:103B10008D939C93D89740E050E0F60183898332DF
:103B200011F441E050E0D501AA0FBB1FAE0DBF1D3F
:103B3000A75BBF4F2D913C911197B601640F751F84
:103B4000FB018389F90181A7970126583D4FF901AF
:103B5000118210820D911C911197F80181A581307D
:103B600089F0813020F0823009F089C063C0FB0108
:103B70008489F801838BED91FC91DB0155968C9142
:103B8000848B7DC0F901118210824901BD0114C0EE
:103B9000FB01008111810A0F1B1FAC0DBD1DA40F7D
:103BA000B51F54968C91D8011B968C93F40180819B
:103BB0009181019691838083F401A081B181A43029
:103BC000B10530F3D9011D921C92970126583D4F43
:103BD000B501660F771F6E0D7F1D675B7F4F14C0A9
:103BE000FB01008111810A0F1B1FAC0DBD1DA40F2D
:103BF000B51F58968C91D8011F968C93F90180813E
:103C00009181019691838083F901A081B181A430D3
:103C1000B10530F334C0ED91FC911197E80FF91F15
:103C2000258BFB018081918101969183808345974B
:103C300010F00CC0B901FB0180819181F601E80F01
:103C4000F91FE40FF51F2489233229F7F501EE0F40
:103C5000FF1FEE0DFF1DE75BFF4F0190F081E02D90
:103C60002AE732E0E20EF31ED7018D919C9126E8FF
:103C70003DEFE20EF31EE80FF91F83E2858B413022
:103C8000510571F4F501EE0FFF1FEE0DFF1DE75B0F
:103C9000FF4F0190F081E02DD60152968C9182AFBA
:103CA000D501AA0FBB1FAE0DBF1DA75BBF4FED9186
:103CB000FC91119781E083AFF60192889A94F4E029
:103CC000F91518F4C701672D2BC5970126583D4FEC
:103CD000F901118210828901AD0111C0FA016081E0
:103CE00071816A0F7B1FAC0DBD1D8C91DB01159698
:103CF0008C93F80180819181019691838083F801F2
:103D0000A081B181A430B10548F3D9011D921C9264
:103D1000970126583D4FA501440F551F4E0D5F1DBD
:103D2000475B5F4F12C0FA01608171816A0F7B1F90
:103D3000AC0DBD1D14968C91DB0111968C93F9018D
:103D400080819181019691838083F901A081B18165
:103D5000A430B10540F311821082970126583D4FDF
:103D6000A501440F551FB701640F751F675B7F4F97
:103D700012C0FB01008111810A0F1B1FAC0DBD1D7C
:103D800018968C91D80119968C93F90180819181B4
:103D9000019691838083F901A081B181A230B105A0
:103DA00040F3F701E40FF51FE75BFF4FA081B181FE
:103DB00082E09B968C9340815181D6011A968C911A
:103DC000DA019C968C930190F081E02DD6011B9630
:103DD0008C9185A7F90111821082970126583D4FD9
:103DE000A501440F551F4E0D5F1D475B5F4F12C06D
:103DF000FA01608171816A0F7B1FAC0DBD1D1C969D
:103E00008C91DB019E968C93F901808191810196C2
:103E100091838083F901A081B181A230B10540F383
:103E200011821082970126583D4FA501440F551F5E
:103E3000D701A40FB51FA75BBF4F11C06D917C9137
:103E40001197680F791F8C0D9D1DFC018685FB0164
:103E500080ABF90180819181019691838083F90182
:103E6000808191818230910548F3F701E40FF51FBD
:103E7000E75BFF4F20813181D60150968C91D901AB
:103E8000D2968C930190F081E02D82A9823011F4BA
:103E900081E083A7072D10E0A92CBB2481E090E0EE
:103EA00068E670E00E94376EAC01F801EE0FFF1F6C
:103EB000EE0FFF1FE00FF11FEA0DFB1D3B96EE0F0B
:103EC000FF1FEE0DFF1D518340834115510521F465
:103ED000C7010E94791326C422E432E0E20EF31EE9
:103EE000D7019C912EEB3DEFE20EF31E913009F0CD
:103EF000A2C1A0E8B2E0EA0EFB1ED7018C9120E837
:103F00003DEFE20EF31E882309F0BCC04A595F4F13
:103F1000D60115968C91DA018C93D60116968C9168
:103F20000190F081E02D833221F4E959FF4F908315
:103F300003C0E959FF4F1082F801EE0FFF1FEE0F8B
:103F4000FF1FE00FF11FEA0DFB1D3B96EE0FFF1F59
:103F5000EE0DFF1D0190F081E02DE959FF4F6081CA
:103F6000862E9924D701A658BD4F11961C921E92F9
:103F7000F801EE0FFF1FEE0DFF1DE75BFF4F0190F5
:103F8000F081E02D81A5813071F0813018F0823010
:103F900039F403C082E090E01CC040E050E00BC068
:103FA00080E090E016C088E090E013C02F5F3F4FA4
:103FB00011963C932E932D913C911197F601E20FAF
:103FC000F31FE80DF91D87814F5F5F4F833271F753
:103FD000CA01695F680F262F30E0F701EA5BFD4FE9
:103FE000808191818217930710F431832083F80137
:103FF000EE0FFF1FEE0FFF1FE00FF11FEA0DFB1D7D
:104000003B96EE0FFF1FEE0DFF1D608171816C5915
:104010007F4F46E452E0E40EF51ED7018D919C914E
:104020004AEB5DEFE40EF51E821B930BDB018D93D3
:104030009C93D701A658BD4F11961C921E924D011C
:10404000AF0110C06E0F7F1FEC0DFD1DE20FF31FBF
:104050008081FB018083D4018D919C911197019601
:104060008D939C93D401ED91FC91DA016D917C913B
:104070006C597F4FDB018D919C9164567040E8171D
:10408000F90700F3E0E8F2E0EE0EFF1ED7019C9185
:10409000E0E8FDEFEE0EFF1E913009F0CCC0F80114
:1040A000EE0FFF1FEE0FFF1FE00FF11FEA0DFB1DCC
:1040B0003B96EE0FFF1FEE0DFF1D208131812A5927
:1040C0003F4FD6011B968C91D9018C93D6011C963B
:1040D0008C910190F081E02D833221F4E959FF4F5A
:1040E000908303C0E959FF4F1082F801EE0FFF1FC4
:1040F000EE0FFF1FE00FF11FEA0DFB1D3B96EE0FC9
:10410000FF1FEE0DFF1D0190F081E02DE959FF4FDB
:104110006081862E9924D701A658BD4F11961C9216
:104120001E92F801EE0FFF1FEE0DFF1DE75BFF4F24
:104130000190F081E02D81A5813071F0813018F07F
:10414000823039F403C082E090E01CC040E050E0CF
:104150000BC080E090E016C088E090E013C02F5FB5
:104160003F4F11963C932E932D913C911197F60160
:10417000E20FF31FE80DF91D85854F5F5F4F833216
:1041800071F7CA01635F680F262F30E0F701EA5B21
:10419000FD4F808191818217930710F43183208332
:1041A000F801EE0FFF1FEE0FFF1FE00FF11FEA0DEA
:1041B000FB1D3B96EE0FFF1FEE0DFF1D6081718111
:1041C0006C597F4F46E452E0E40EF51ED7018D9105
:1041D0009C914AEB5DEFE40EF51E821B930BDB0115
:1041E0008D939C93D701A658BD4F11961C921E9299
:1041F0004D01AF0110C06E0F7F1FEC0DFD1DE20FD2
:10420000F31F8081FB018083D4018D919C911197D4
:1042100001968D939C93D401ED91FC91DA016D91FF
:104220007C916C597F4FDB018D919C91645670405D
:10423000E817F90700F3E2E4F2E0EE0EFF1ED70103
:104240008C91EEEBFDEFEE0EFF1E8250843008F0F5
:10425000ABC121E832E0E20EF31ED7018C91EFE70B
:10426000FDEFEE0EFF1E882309F0CEC0F801EE0F21
:10427000FF1FEE0FFF1FE00FF11FEA0DFB1D3B9626
:10428000EE0FFF1FEE0DFF1D208131812A593F4F98
:10429000D6011C968C91D9018C93D6011D968C91D8
:1042A0000190F081E02D833229F4E959FF4F81E03C
:1042B000808303C0E959FF4F1082F801EE0FFF1F02
:1042C000EE0FFF1FE00FF11FEA0DFB1D3B96EE0FF7
:1042D000FF1FEE0DFF1D0190F081E02DE959FF4F0A
:1042E0006081862E9924D701A658BD4F11961C9245
:1042F0001E92F801EE0FFF1FEE0DFF1DE75BFF4F53
:104300000190F081E02D81A5813071F0813018F0AD
:10431000823039F403C082E090E01CC040E050E0FD
:104320000BC080E090E016C088E090E013C02F5FE3
:104330003F4F11963C932E932D913C911197F6018E
:10434000E20FF31FE80DF91D86854F5F5F4F833243
:1043500071F7CA01625F680F262F30E0F701EA5B50
:10436000FD4F808191818217930710F43183208360
:10437000F801EE0FFF1FEE0FFF1FE00FF11FEA0D18
:10438000FB1D3B96EE0FFF1FEE0DFF1D608171813F
:104390006C597F4F46E452E0E40EF51ED7018D9133
:1043A0009C914AEB5DEFE40EF51E821B930BDB0143
:1043B0008D939C93D701A658BD4F11961C921E92C7
:1043C0005D01AF0110C06E0F7F1FEC0DFD1DE20FF0
:1043D000F31F8081FB018083D5018D919C91119702
:1043E00001968D939C93D501ED91FC91DA016D912D
:1043F0007C916C597F4FDB018D919C91645670408C
:10440000E817F90700F3D0C0823009F0CDC0F801F9
:10441000EE0FFF1FEE0FFF1FE00FF11FEA0DFB1D58
:104420003B96EE0FFF1FEE0DFF1D208131812A59B3
:104430003F4FD60152968C91D9018C93D601539659
:104440008C910190F081E02D833229F4E959FF4FDE
:1044500081E0808303C0E959FF4F1082F801EE0F1D
:10446000FF1FEE0FFF1FE00FF11FEA0DFB1D3B9634
:10447000EE0FFF1FEE0DFF1D0190F081E02DE959B9
:10448000FF4F6081862E9924D701A658BD4F119603
:104490001C921E92F801EE0FFF1FEE0DFF1DE75B51
:1044A000FF4F0190F081E02D81A5813071F08130C6
:1044B00018F0823039F403C082E090E01CC040E084
:1044C00050E00BC080E090E016C088E090E013C0A0
:1044D0002F5F3F4F11963C932E932D913C91119756
:1044E000F601E20FF31FE80DF91D87894F5F5F4F5B
:1044F000833271F7CA016C5E680F262F30E0F70136
:10450000EA5BFD4F808191818217930710F431831C
:104510002083F801EE0FFF1FEE0FFF1FE00FF11FCA
:10452000EA0DFB1D3B96EE0FFF1FEE0DFF1D608198
:1045300071816C597F4F46E452E0E40EF51ED701BD
:104540008D919C914AEB5DEFE40EF51E821B930B5F
:10455000DB018D939C93D701A658BD4F11961C92F9
:104560001E925D01AF0110C06E0F7F1FEC0DFD1D8F
:10457000E20FF31F8081FB018083D5018D919C9117
:10458000119701968D939C93D501ED91FC91DA01E1
:104590006D917C916C597F4FDB018D919C9164569C
:1045A0007040E817F90700F3F701E85BFF4F8081DF
:1045B0008F5F8083853009F41082000F111F0E0D6C
:1045C0001F1D075B1F4FD801ED91FC9193AD82AD8C
:1045D000981711F481E081AF99E4C92ED12CCE0C4B
:1045E000DF1C66247724870106581D4F83E5282E9B
:1045F000312C2E0C3F1CF701E355FD4FFA83E98364
:10460000970121553D4F3C832B83A701415A5F4FB2
:104610005E834D83C7018E5B9D4F98878F83D70143
:10462000AF57BD4FBA87A987F701E752FE4FFC8706
:10463000EB87D8011D921C920E94DE07D601ED91F6
:10464000FC91309709F48FC325A936A947A950AD2D
:1046500012161306140615060CF085C3621B730BA5
:10466000840B950B69557B41804090400CF037C31B
:1046700081AD813009F000C3B62CE981FA816082F6
:10468000AB81BC811C92ED81FE8180818F5F808334
:10469000D8011D921C920FC0F901BA96EE0FFF1FB0
:1046A000EE0DFF1D80819181892B59F02F5F3F4FC7
:1046B000F80131832083D8012D913C9125303105BB
:1046C00058F3E22FAD81BE818C91853090F0AB859F
:1046D000BC858C91813029F0813038F0823049F4EA
:1046E0001DC0C7010E94E01203C0C7010E947312DF
:1046F000E82F4E2E552481E090E064EB70E00E949C
:10470000376EAC019201265D3F4F220F331F2E0DF5
:104710003F1DF90191838083009731F4C7016B2D10
:104720000E9415128FEF2EC3D1018C9181508C9372
:1047300045555F4FD601ED91FC9185A896A8A7A895
:10474000B0ACDA018D929D92AD92BC9213974F520C
:1047500050408081FA018083D901ED91FC91E955A7
:10476000FF4FD6018D919C91DC019A968C918083AC
:10477000F901A081B181F60180819181FC0183A5BD
:1047800018968C93AF81B8858C91813009F060C008
:10479000F901A081B181A955BF4F8C91A75AB040B2
:1047A000813009F048C0D8011D921C92A90116C0A1
:1047B000FA01A081B181A80FB91FAF57BF4FF60111
:1047C00020813181280F391FF90185818C93D8010F
:1047D0008D919C91119701968D939C93F801808106
:1047E00091818430910520F311821082A201465DEF
:1047F0005F4F440F551F4E0D5F1D16C0FA01A0817B
:10480000B181A80FB91FA358BF4FF6012081318194
:10481000280F391FF90181818C93D8018D919C91CA
:10482000119701968D939C93F8018081918184303A
:10483000910520F36EC0882309F06BC0AB57BF4FC2
:10484000F60180819181FC0181858C93D90156C04C
:10485000F80111821082A90116C0FA01A081B1816C
:10486000A80FB91FAF57BF4FF60120813181280F24
:10487000391FF90185818C93D8018D919C911197F5
:1048800001968D939C93F8018081918184309105EC
:1048900020F3118210829201265D3F4FB901660F0D
:1048A000771F6E0D7F1D13C0DB01ED91FC91E80FAA
:1048B000F91FE358FF4F480F591FDA0111968C91E9
:1048C0008083F80180819181019691838083D80152
:1048D0008D919C91F601408151818430910520F3A6
:1048E000D901AA0FBB1FAE0DBF1D2D913C91119791
:1048F0002B573F4FFA018185F9018083ED91FC919F
:10490000EA57FF4FD6018D919C91DC011A968C914C
:104910008083F601808191813AE2A32EB12CA40C10
:10492000B51CAA0CBB1CAE0CBF1CD501ED91FC91B3
:10493000EA55FF4FDC01DA966C91DA97D3968D91A8
:104940009C91D49770E00E94CD6D6083D501ED916C
:10495000FC91E855FF4FD6018D919C91DC01999611
:104960008C918083F501A081B181A855BF4F8C91B6
:10497000A85AB0408130D9F0813020F0823009F05F
:104980008BC05DC0A157BF4FF60180819181FC01B2
:1049900083898C93D501ED91FC91E057FF4FD601AF
:1049A0008D919C91DC0154968C91808375C0F801A7
:1049B00011821082A50116C0FA01A081B181A80F51
:1049C000B91FA557BF4FF60120813181280F391F2C
:1049D000F90183858C93D8018D919C911197019653
:1049E0008D939C93F801808191818430910520F30F
:1049F00011821082A201465D5F4F440F551F4E0D7C
:104A00005F1D16C0FA01A081B181A80FB91FA95777
:104A1000BF4FF60120813181280F391FF9018785A9
:104A20008C93D8018D919C91119701968D939C93B5
:104A3000F801808191818430910520F32DC0D80147
:104A40001D921C92A501F80180819181FA01A0813B
:104A5000B181A80FB91FAF56BF4FF6012081318138
:104A6000280F391FF90185898C93D8018D919C916C
:104A7000119701968D939C93D601ED91FC91E80FCF
:104A8000F91F25892332F9F6D501ED91FC91E80F44
:104A9000F91FEF56FF4F2083D601ED91FC9182ADB7
:104AA000682F70E061507040F301EE0FFF1FEE0FB2
:104AB000FF1FE60DF71DE60FF71F3B96EE0FFF1FDA
:104AC000EE0DFF1DF88BEF87AA24BB2488249924C0
:104AD000A201465D5F4F440F551F4E0D5F1D32C052
:104AE000D8011D921C9216C0FA0120813181280F35
:104AF000391F2A0D3B1DA80FB91F8C91D9011C9697
:104B00008C930894811C911CF801808191810196FD
:104B100091838083D8018D919C91EF85F889A08144
:104B2000B181AC59BF4F2D913C911197A456B04023
:104B300082179307C8F2A20EB31E615070403297DD
:104B4000F88BEF87FFEF6F3F7F0751F69201265DED
:104B50003F4F220F331F2E0D3F1DF901A081B18160
:104B6000A059BF4F11969C928E92A057B040E985F4
:104B7000FA858081823009F044C0AC58BF4FF601FD
:104B800080819181FC0184A58C93D901ED91FC91E8
:104B9000EB58FF4FD6018D919C91DC019D968C9135
:104BA0008083D901ED91FC91EA58FF4FD6018D9198
:104BB0009C91DC019E968C918083D901ED91FC91B2
:104BC000E958FF4FD6018D919C91DC019F968C9105
:104BD0008083D901ED91FC91E858FF4FD6018D916A
:104BE0009C91DC01D0968C918083D901ED91FC9150
:104BF000E758FF4FD6018D919C91DC01D1968C91A5
:104C00008083F801118210825301AA0CBB1CAA0CEC
:104C1000BB1CA60CB71C1CC0EA0DFB1D3B96EE0F7F
:104C2000FF1FEE0DFF1D808191810E94006FD80152
:104C30008D919C911197F501E80FF91F3B96EE0FAE
:104C4000FF1FEE0DFF1D1182108201968D939C9324
:104C5000D801ED91FC91E530F105F0F2D601ED912E
:104C6000FC9115AA16AA17AA10AECF010E94006FD8
:104C7000F6011182108277C092AD83AD981709F0CA
:104C800072C0D8011D921C925301AA0CBB1CAA0C25
:104C9000BB1CA60CB71C1CC0EA0DFB1D3B96EE0FFF
:104CA000FF1FEE0DFF1D808191810E94006FF801B2
:104CB00080819181F501E80FF91F3B96EE0FFF1FF0
:104CC000EE0DFF1D118210820196D8018D939C93E9
:104CD000D801ED91FC91E530F105F0F22DC0F8011D
:104CE000118210825301AA0CBB1CAA0CBB1CA60C7F
:104CF000B71C1CC0EA0DFB1D3B96EE0FFF1FEE0D0F
:104D0000FF1D808191810E94006FD8018D919C913F
:104D10001197F501E80FF91F3B96EE0FFF1FEE0DFF
:104D2000FF1D1182108201968D939C93D801ED9105
:104D3000FC91E530F105F0F2D601ED91FC9115AA58
:104D400016AA17AA10AECF010E94006FF6011182B9
:104D50001082D1018C9181508C93E981FA8160821B
:104D6000AB81BC811C920894611C711CE2E0F0E0F4
:104D7000CE0EDF1EF5E06F16710409F05ACC80E00C
:104D800001C081E060960FB6F894DEBF0FBECDBFC4
:104D9000CF91DF911F910F91FF90EF90DF90CF9017
:104DA000BF90AF909F908F907F906F905F904F904B
:104DB0003F902F900895AF92BF92CF92DF92EF92E3
:104DC000FF920F931F93CF93DF93EC016B015A0176
:104DD000890188E790E061E070E00E94376E7C0115
:104DE000009711F41FEF81C0B8016D5F7F4FFE0186
:104DF000E658FD4F7183608340E050E0DF010BC057
:104E0000F601E20FF31F8081480F511D2F5F3F4FC6
:104E100011963C932E932D913C9111972A153B05A9
:104E200078F34F3F510519F04F3F09F06AC0DE019A
:104E3000AA5BBD4F11961C921E92FE01E658FD4FD3
:104E40000C5F1F4F11830083045010409F01089492
:104E5000A108B108AD0116C0FD013497E01BF10BAC
:104E6000EE0DFF1DAC0DBD1D8C918083FA0180817C
:104E70009181019691838083F901808191810196CE
:104E800091838083F901A081B181AA15BB0520F32C
:104E90006C0D7D1DFB018081813879F0823818F41A
:104EA0008038D9F405C0803971F08139B1F40FC070
:104EB000C058DD4F81E0888303C0C058DD4F1882A1
:104EC000C058D2400AC0CF57DD4F188204C0CF5718
:104ED000DD4F82E08883C158D240CE01B7010E94E5
:104EE000C714182FC7010E94006F812FDF91CF9147
:104EF0001F910F91FF90EF90DF90CF90BF90AF90F8
:104F00000895C7010E94006F11E0EFCF0F931F9328
:104F1000CF93DF93EC018B0141E00E94496188232C
:104F200011F081E005C0CE01B80140E00E94496166
:104F3000DF91CF911F910F9108952F923F924F9241
:104F40005F926F927F928F929F92AF92BF92CF9219
:104F5000DF92EF92FF920F931F93DF93CF93CDB722
:104F6000DEB762970FB6F894DEBF0FBECDBF8C01DF
:104F70003B010E94DE07D82E04521E4F82E0D8016A
:104F80008C930C5D1140F801E255FD4F8081882320
:104F900021F4EE24FF24332409C08EE7D3018C933F
:104FA000108251E0E52EF12C332433944D2D592FEE
:104FB000CB01DA014C015D01EBE0F0E0FA8BE98B0B
:104FC000DD245524C80182559D4F988B8F8746E07C
:104FD000242E44244394B1C08EE79AE00E943A0AFA
:104FE000882311F4CC2495C08EE79AE00E94350AFC
:104FF000F301EE0DFF1D80830894E11CF11C0E945B
:10500000DE07AC01CB01DA014C015D010894E10837
:10501000F108F301EE0DFF1D0894E11CF11C8081E5
:105020008E3761F48CE291E08E199F098E369105DE
:1050300020F4AF85B8894C9201C03394B1E0EB16EF
:10504000F10449F4EE24FF2480818E3761F431E0CD
:10505000E32EF12C08C0ECE2EE16E1E0FE0618F0BB
:10506000CC24C39401C0CC24529C900111242C5F09
:105070003F4FC9018D0D911DE816F90699F4F1E035
:10508000DF1699F0F301EE0DFF1D319780818A58EC
:10509000823080F089899A8903969A8B898BDD24E6
:1050A000D39403C091E0D91629F4A989BA8911963D
:1050B000BA8BA98BF301EE0DFF1D3197E081ED371F
:1050C00041F4DD20F9F4E989FA893196FA8BE98B0C
:1050D00019C0EA3851F4E216F306A1F489899A89D5
:1050E00006969A8B898B53940DC0EE3759F491E054
:1050F000D91641F4A989BA891197BA8BA98B29EFDE
:10510000D22EDA0EE989FA89EE16FF0611F4CC24C4
:10511000C3940E94DE070E94DE07681979098A0994
:105120009B09615D77408040904028F08EE79AE0CF
:105130000E94300A08C0CC2031F4AF85B8898C9128
:10514000882309F449CFF30180818E3709F0339425
:1051500091E0C92ED12CAA24BB248AE7482E82E0F4
:10516000582E400E511EC80186559D4F9A83898343
:10517000D801A555BD4FBC83AB83F801E455FD4F65
:10518000FE83ED83C80187559D4F98878F83D80193
:10519000A855BD4FBA87A987F801E452FE4FFC8796
:1051A000EB8788248394C80185529E4F9E878D8704
:1051B0009BC00894C11CD11C80818E3721F0319690
:1051C000CE14DF04B0F3D601AA19BB09BA8BA98BA0
:1051D000F201118210829924A3014A0D5B1D0CC0BB
:1051E000FA01E20FF31F80818D3709F493942F5F4A
:1051F0003F4FD2012D933C93F20120813181898967
:105200009A892817390760F3992049F09601281BDD
:10521000390BC801B30149895A890E949B0E960136
:10522000A989BA892A1B3B0BF301E20FF31F838183
:105230008B38C1F18C3820F48A3809F050C006C090
:10524000803991F0813909F04AC01BC0E989FA8997
:10525000EA0DFB1DE919F109FA8BE98BC801B301CD
:10526000AF010E94F60E3BC089899A898A0D9B1D69
:10527000891991099A8B898BC801B30149895A8987
:105280000BC0E989FA89EA0DFB1DE919F109FA8BCE
:10529000E98BC801B301AF010E94DB26AD85BE8555
:1052A0008C931DC08581A981BA818C938681AB8145
:1052B000BC818C938781AD81BE818C938185AF81C8
:1052C000B8858C938085E985FA858083882321F4CD
:1052D000AB85BC851C9203C0EB85FC8580823A942B
:1052E00056010894C11CD11C332021F0F301EC0DB0
:1052F000FD1D62CF04521E4FD8018C9162960FB6ED
:10530000F894DEBF0FBECDBFCF91DF911F910F91FB
:10531000FF90EF90DF90CF90BF90AF909F908F90D5
:105320007F906F905F904F903F902F9008952F92B5
:105330003F924F925F926F927F928F929F92AF9225
:10534000BF92CF92DF92EF92FF920F931F93DF9362
:10535000CF93CDB7DEB72A970FB6F894DEBF0FBE56
:10536000CDBF6C014B010E94DE07182F2CED31E000
:10537000C20ED31E82E0D6018C93E4E2FEEFCE0E85
:10538000DF1EF601E255FD4F8081882321F4EE24D3
:10539000FF24332409C08EE7D4018C931082F1E0FE
:1053A000EF2EF12C33243394412F592FCB01DA0106
:1053B0002C013D01E7E0F0E0FA87E98710E0BB242B
:1053C000960122553D4F38872F83E6E02E2EAA24E2
:1053D000A394ABC08EE79AE00E943A0A882311F4A6
:1053E00000E08FC08EE79AE00E94350AF401EE0DCE
:1053F000FF1D80830894E11CF11C0E94DE07AC01B4
:10540000CB01DA012C013D010894E108F108F40117
:10541000EE0DFF1D0894E11CF11C80818E3761F4B4
:105420008CE291E08E199F098E36910520F4AF81B0
:10543000B885AC9201C03394B1E0EB16F10449F4A5
:10544000EE24FF2480818E3759F471E0E72EF12C91
:1054500007C0ECE2EE16E1E0FE0610F001E001C04C
:1054600000E0B29C900111242C5F3F4FC901810FD5
:10547000911DE816F90689F4113089F0F401EE0D5A
:10548000FF1D319780818958823070F089859A8517
:1054900003969A87898711E002C0113029F4A98503
:1054A000BA851196BA87A987F401EE0DFF1D3197D1
:1054B000E081ED3741F41123F1F4E985FA85319665
:1054C000FA87E98718C0EA3859F4E216F30699F426
:1054D00029853A852A5F3F4F3A872987B3940BC0C5
:1054E000EE3749F4113039F489859A8501979A8706
:1054F000898719851750A985BA85EA16FB0609F42C
:1055000001E00E94DE070E94DE0764197509860922
:105510009709615D77408040904028F08EE79AE0DF
:105520000E94300A08C0002331F4EF81F8858081A1
:10553000882309F44FCFD4018C918E3709F033942E
:10554000AA24BB2401E010E06AE7462E62E0562E52
:105550004C0C5D1CF601E552FE4FFA83E98396017F
:1055600028553D4F3C832B83C60184529E4F9E831A
:105570008D836624639486C00F5F1F4F80818E37B2
:1055800021F031960E151F05B8F3D801AA19BB09F1
:10559000BA87A987F201118210827724A4014A0DEB
:1055A0005B1D0CC0FA01E20FF31F80818D3709F4F7
:1055B00073942F5F3F4FD2012D933C93F2012081D2
:1055C000318189859A852817390760F3772049F05A
:1055D0009801281B390BC601B40149855A850E94E0
:1055E0009B0E9801A985BA852A1B3B0BF401E20F9B
:1055F000F31F8381813821F1823818F48038F1F566
:1056000012C0893871F18A38C9F5E985FA85EA0D41
:10561000FB1DE719F109FA87E987C601B401AF015B
:105620000E94F60E2BC089859A858A0D9B1D8719CD
:1056300091099A878987C601B40149855A850BC0AB
:10564000E985FA85EA0DFB1DE719F109FA87E98773
:10565000C601B401AF010E94DB26A981BA818C93F7
:105660000DC08581EB81FC818083882321F4AD818D
:10567000BE811C9203C0ED81FE8160823A94580184
:105680000F5F1F4F332021F0F401E00FF11F76CFA1
:105690002CED31E0C20ED31ED6018C912A960FB6A6
:1056A000F894DEBF0FBECDBFCF91DF911F910F9158
:1056B000FF90EF90DF90CF90BF90AF909F908F9032
:1056C0007F906F905F904F903F902F9008952F9212
:1056D0003F924F925F926F927F928F929F92AF9282
:1056E000BF92CF92DF92EF92FF920F931F93DF93BF
:1056F000CF93CDB7DEB72C970FB6F894DEBF0FBEB1
:10570000CDBF6C0178876F838CE291E061E070E03F
:105710000E94376E5C01009739F48EE79AE00E9490
:10572000300AFF24FA94C7C10E94DE070E94DE07F8
:10573000F601E255FD4F8081882321F4442455244D
:105740001A8209C010828EE7F5018083B1E04B2EEA
:10575000512CF1E0FA83EF81F88580818F3F29F4A5
:10576000C601B5010E94972906C08E3F79F4C60193
:10577000B5010E949D27860104521E4FF8018083C7
:10578000C5010E94006FF801F08095C18E3E41F482
:10579000A5E0EA2EF12C012D112DFDE63F2E07C0CC
:1057A000E2E3EE2EF12C012D112D7EE1372EEF815B
:1057B000F8858581853489F48681843409F045C073
:1057C00022E432E0C20ED31EF60180812EEB3DEFC3
:1057D000C20ED31E8130C9F58EC1843461F4EF81CD
:1057E000F88586818E3489F568EEE62E63E0F62E24
:1057F000012D112D2AC08E3441F5EF81F885868167
:10580000843419F522E432E0C20ED31EF601808101
:105810002EEB3DEFC20ED31E833039F450E4E52E5B
:105820005CE9F52E012D112D10C08450823038F422
:1058300040EBE42E46E3F42E012D112D06C030E29C
:10584000E32E3EE4F32E012D112D0E94DE076B8323
:105850007C838D839E830E94DE07AC01CB01DA013D
:105860003C014D01A60142555D4F5C874B87232CBF
:1058700033242CC08EE79AE00E94350AF501E40D2E
:10588000F51D80830894411C511CF501E40DF51DA4
:10589000319780818E3779F48CE291E084199509F3
:1058A0008215930528F421E0EB85FC85208303C055
:1058B0003A813F5F3A830E94DE07AC01CB01DA01F7
:1058C0003C014D010E94DE070E94DE070E94DE07B8
:1058D00066197709880999096E157F058007910770
:1058E00008F003C10E94DE072B813C814D815E815F
:1058F000621B730B840B950B60547C498040904075
:1059000008F0F3C04CE2441641E0540608F0EDC044
:10591000EB85FC858081882309F0E7C08EE79AE05B
:105920000E943A0A882371F2A5CFFA81FF5FFA83B9
:1059300021E0822E912C00E010E092E0F92E1982F5
:105940008AE7282E82E0382E2C0C3D1C9601265228
:105950003E4F3A872987BBED6B2EB1E07B2E6C0C56
:105960007D1C9CC00894811C911C80818E3721F085
:10597000319684149504B0F3A401401B510B5C874D
:105980004B87F10111821082EE24A501400F511FB7
:105990000CC0FA01E20FF31F80818D3709F4E39404
:1059A0002F5F3F4FF10131832083F101208131814D
:1059B0008B859C852817390760F3EE2049F0940108
:1059C000281B390BC601B5014B855C850E949B0ED7
:1059D000D401EB85FC85AE1BBF0BF501EA0FFB1F65
:1059E0008381883881F0893830F4803879F18138C2
:1059F00009F048C036C08039A1F1813991F18A3867
:105A000009F040C013C02B853C85200F311F2E1993
:105A100031093C872B87C601B5014F8158858D011F
:105A20000E946611F82EE985FA852BC02B853C85EE
:105A3000200F311F2E1931093C872B87C601B50174
:105A4000A9019D010E94F60EF82E1CC04B855C85B5
:105A5000400F511F4E1951095C874B87C601B50194
:105A60000BC02B853C85200F311F2E1931093C8737
:105A70002B87C601B501A9019D010E94DB26F82EE6
:105A8000F301F082FF2019F4F981FF5FF9832A8185
:105A900021502A8384010894811C911C3A8133236C
:105AA00021F0F501E80DF91D60CFC5010E94006FDE
:105AB00049814111FF248F2D2C960FB6F894DEBF3B
:105AC0000FBECDBFCF91DF911F910F91FF90EF904F
:105AD000DF90CF90BF90AF909F908F907F906F900E
